:020000040800F2
:1000000000200020950A0008BD060008C906000867
:1000100000000000000000000000000000000000E0
:10002000000000000000000000000000D1060008F1
:100030000000000000000000DD060008E9060008DE
:10004000EB0A0008ED0A0008EF0A0008F10A0008B0
:10005000F30A0008F50A0008F70A0008F90A000880
:10006000FB0A0008FD0A0008FF0A0008010B00084F
:10007000030B0008050B0008070B0008090B00081C
:100080000B0B00080D0B00080F0B0008110B0008EC
:10009000130B0008150B0008170B0008190B0008BC
:1000A0001B0B00081D0B00081F0B0008210B00088C
:1000B000230B0008250B0008270B0008290B00085C
:1000C0002B0B000880B582B000AF786039607B6888
:1000D0003A689A62C046BD4602B080BD80B500AFA6
:1000E000064B180000F026F8054A064B11001800D0
:1000F000FFF7E8FFC046BD4680BDC04614000020A3
:10010000070400000004004880B500AF074B1A68E0
:10011000074B1B689A4206D8054B1B682D33FF33EB
:100120001A00024B1A60C046BD4680BD0400002084
:100130001000002080B584B000AF78600F23FB185A
:1001400000221A700F23FB181B787A68D3180F222D
:10015000BA1812780A498C46624412781A700F2332
:10016000FB180F22BA18127801321A700F23FB18ED
:100170001B780B2BE6D9C046BD4604B080BDC046F7
:10018000ACF7FF1F80B500AF074B1A68074B1B6821
:100190009A4206D2054B1B68FA2292009A18024B2B
:1001A0001A60C046BD4680BD080000201000002037
:1001B000B0B582B000AF02003960FB1D1A70FB1DA4
:1001C0001B787F2B32D92F4CFB1D1B781A000F2375
:1001D0001340083B99082B4AFB1D1B7818000F237E
:1001E0000340083B9B0806339B00D31804331B686D
:1001F000FA1D1278100003220240D200FF20904026
:100200000200D2431A403B689B01FF201840FB1DAF
:100210001B781D0003232B40DB00984003001A438A
:100220008B1D9B00E31804331A6027E0164CFB1D5E
:100230001B785BB29B081449FA1D127852B29208DF
:10024000C03292005258F91D09780800032101407C
:10025000C900FF2088400100C94311403A6892015B
:10026000FF201040FA1D1278150003222A40D20008
:10027000904002000A43C0339B001A51C046BD465D
:1002800002B0B0BD00ED00E000E100E080B582B05A
:1002900000AF78607B68013B0C4A934201D901238F
:1002A00010E00B4B7A68013A5A6001235B4203214C
:1002B0001800FFF77DFF064B00229A60044B0722CF
:1002C0001A6000231800BD4602B080BDFFFFFF008A
:1002D00010E000E080B500AF044B044A1268012131
:1002E0000A431A60C046BD4680BDC04600100240A9
:1002F00080B500AF044B1B68022213405A1E934185
:10030000DBB21800BD4680BD0010024080B582B04F
:1003100000AF7860064B064A1268F8218A43110044
:100320007A68D2000A431A60C046BD4602B080BD5A
:100330000010024080B582B000AF7860064B064ADC
:10034000526803218A4311007A680A435A60C04602
:10035000BD4602B080BDC0460010024080B500AF6F
:10036000034B5B680C2213401800BD4680BDC0469D
:100370000010024080B582B000AF7860064B064A9C
:100380005268F0218A4311007A680A435A60C046D5
:10039000BD4602B080BDC0460010024080B582B0AC
:1003A00000AF7860054B054A5268054911407A68EC
:1003B0000A435A60C046BD4602B080BD00100240EC
:1003C000FFF8FFFF80B584B000AF7860074B074AA5
:1003D00051697A680A435A61044B5B697A68134031
:1003E000FB60FB68C046BD4604B080BD0010024003
:1003F00080B584B000AF7860074B074AD1697A684E
:100400000A43DA61044BDB697A681340FB60FB68DE
:10041000C046BD4604B080BD0010024080B584B027
:1004200000AF7860074B074A91697A680A439A617E
:10043000044B9B697A681340FB60FB68C046BD466D
:1004400004B080BD0010024080B582B000AF78607B
:10045000064B064A126801218A4311007A680A4352
:100460001A60C046BD4602B080BDC04600200240B2
:1004700080B500AF034B1B68012213401800BD4636
:1004800080BDC0460020024080B582B000AF7860D9
:100490007B68042B06D1084B074A126804210A43E3
:1004A0001A6005E0044B044A126804218A431A606A
:1004B000C046BD4602B080BD10E000E080B582B00D
:1004C00000AF786039607B683A689A62C046BD4682
:1004D00002B080BD80B500AF0120FFF79FFF8023F1
:1004E0005B051800FFF784FF00F028F8104B1A682E
:1004F000FA239900100000F01DFB03001800FFF71D
:10050000C5FE00F04FF80A2000F094FAFFF7E6FD70
:10051000084B1A68084B1B689A4205D8064B1B68A3
:1005200064331A00034B1A60FFF7EEFDF0E7C04694
:10053000000000200C0000201000002080B500AF5B
:100540000020FFF781FFFFF793FF031E01D000F0AB
:10055000AFF8FFF7BFFEC046FFF7CAFE0300012B4E
:10056000FAD11020FFF7D2FE0020FFF703FF002092
:10057000FFF714FF0020FFF7DDFEC046FFF7EEFE99
:10058000031EFBD1064B180000F044FA0420FFF7CD
:100590007BFF034B180000F06FFAC046BD4680BDDC
:1005A00000127A0080B586B000AF3B001800182317
:1005B0001A00002100F04AFB8023DB021800FFF73D
:1005C00001FF80239B021800FFF7FCFE374B01213F
:1005D0001800FFF773FF354B02211800FFF76EFF7D
:1005E000324B04211800FFF769FF8023DB002F4AFC
:1005F00019001000FFF762FF3B0001221A603B0068
:1006000001225A603B0000229A603B000022DA601F
:100610003B0000221A613B00244A1900100000F040
:1006200079F93B0002221A603B0001225A603B002C
:1006300000229A603B000022DA603B0000221A612F
:100640003B001A4A1900100000F064F93B00042234
:100650001A603B0001225A603B0000229A603B0076
:100660000022DA603B0000221A613B000F4A1900A9
:10067000100000F04FF93B008022D2001A603B00CE
:1006800001225A603B0000229A603B000022DA609F
:100690003B0000221A613B00044A1900100000F0E0
:1006A00039F9C046BD4606B080BDC04600040048CA
:1006B00080B500AFC046BD4680BDC04680B500AF26
:1006C000C046BD4680BDC04680B500AFFEE7C0460F
:1006D00080B500AFC046BD4680BDC04680B500AF06
:1006E000C046BD4680BDC04680B500AF044B1B6808
:1006F0005A1C034B1A60FFF745FDC046BD4680BD3E
:100700001000002080B500AF1A4B1A4A1268012170
:100710000A431A60174B174A526817490A405A6031
:10072000144B144A126815490A401A60114B114AB9
:10073000126813490A401A600E4B0E4A526811495A
:100740000A405A600B4B0B4AD26A0F218A43DA6285
:10075000084B084A126B0C490A401A63054B054ABC
:10076000526B01218A435A63024B00229A60C046B1
:10077000BD4680BD001002400CB8FFF8FFFFF6FE3A
:10078000FFFFFBFFFFFFC0FFACFEFFFF80B584B0A3
:1007900000AFF860B9607A60FB681968BB68BA6836
:1007A0005A4313005B009B18DB430B401A00BB68E5
:1007B000B9684B4379684B431A43FB681A60C046DB
:1007C000BD4604B080BDC04680B584B000AFF860BF
:1007D000B9607A60FB685B68BA68D2431A40BB684C
:1007E00079684B431A43FB685A60C046BD4604B063
:1007F00080BDC04680B584B000AFF860B9607A6053
:10080000FB689968BB68BA685A4313005B009B1881
:10081000DB430B401A00BB68B9684B4379684B4314
:100820001A43FB689A60C046BD4604B080BDC0460E
:1008300080B584B000AFF860B9607A60FB68D968B1
:10084000BB68BA685A4313005B009B18DB430B403C
:100850001A00BB68B9684B4379684B431A43FB687D
:10086000DA60C046BD4604B080BDC04680B584B0E5
:1008700000AFF860B9607A60FB68196ABB68BA6853
:100880005343BA685343BA685A4313001B019B1A77
:10089000DB430B401A00BB68B9684B43B9684B4354
:1008A000B9684B4379684B431A43FB681A62C046E8
:1008B000BD4604B080BDC04680B584B000AFF860CE
:1008C000B9607A60FB68596ABB681B0ABA68120A89
:1008D0005343BA68120A5343BA68120A5A431300C0
:1008E0001B019B1ADB430B401A00BB681B0AB9684B
:1008F000090A4B43B968090A4B43B968090A4B43D3
:1009000079684B431A43FB685A62C046BD4604B03F
:1009100080BDC04680B584B000AF786039600023E8
:10092000FB600023BB6040E03B681B680121FA6864
:1009300091400A001340BB60BB68002B32D03B687B
:100940005A68B9687B681800FFF720FF3B685B684E
:10095000012B03D03B685B68022B06D13B689A6889
:10096000B9687B681800FFF745FF3B681A69B968EA
:100970007B681800FFF75CFF3B685B68022B11D1B6
:10098000BB68FF2B07D83B685A69B9687B681800B9
:10099000FFF76CFF06E03B685A69B9687B6818008E
:1009A000FFF78AFFFB680133FB603B681A68FB684E
:1009B000DA40131EB8D13B685B68012B03D03B685B
:1009C0005B68022B07D13B6819683B68DA687B6873
:1009D0001800FFF7F9FE01231800BD4604B080BDE2
:1009E00090B583B000AF78603960094C3968786899
:1009F00000F0A0F80300013B6360054B00229A6001
:100A0000034B05221A60C046BD4603B090BDC046E8
:100A100010E000E080B582B000AF7860FA239A0061
:100A20007B6811001800FFF7DBFFC046BD4602B02F
:100A300080BDC04680B584B000AF78600D4B1B68A8
:100A4000FB60FB687B6801330CD07B6801337B6003
:100A500008E0084B1A6880235B02134002D07B68D1
:100A6000013B7B607B68002BF3D1C046BD4604B0E0
:100A700080BDC04610E000E080B582B000AF786075
:100A8000034B7A681A60C046BD4602B080BDC046BE
:100A9000000000200749084A084B9B1A05DD002486
:100AA0000859105104349C42FADB05488047054838
:100AB00000470000D80C00080000002004000020BF
:100AC00005070008C90A00081849194A002301E06F
:100AD0000B6004319142FBD3FFF7FCFCFEE7FEE71D
:100AE000FEE7FEE7FEE7FEE7FEE7FEE7FEE7FEE7DE
:100AF000FEE7FEE7FEE7FEE7FEE7FEE7FEE7FEE7CE
:100B0000FEE7FEE7FEE7FEE7FEE7FEE7FEE7FEE7BD
:100B1000FEE7FEE7FEE7FEE7FEE7FEE7FEE7FEE7AD
:100B2000FEE7FEE7FEE7FEE7FEE7FEE70400002043
:100B300020000020002243088B4274D303098B421B
:100B40005FD3030A8B4244D3030B8B4228D3030C9D
:100B50008B420DD3FF22090212BA030C8B4202D33F
:100B60001212090265D0030B8B4219D300E0090A67
:100B7000C30B8B4201D3CB03C01A5241830B8B4270
:100B800001D38B03C01A5241430B8B4201D34B0359
:100B9000C01A5241030B8B4201D30B03C01A5241BE
:100BA000C30A8B4201D3CB02C01A5241830A8B4243
:100BB00001D38B02C01A5241430A8B4201D34B022C
:100BC000C01A5241030A8B4201D30B02C01A524190
:100BD000CDD2C3098B4201D3CB01C01A5241830944
:100BE0008B4201D38B01C01A524143098B4201D37E
:100BF0004B01C01A524103098B4201D30B01C01AA9
:100C00005241C3088B4201D3CB00C01A5241830822
:100C10008B4201D38B00C01A524143088B4201D34F
:100C20004B00C01A5241411A00D2014652411046AF
:100C30007047FFE701B5002000F006F802BDC0468E
:100C40000029F7D076E770477047C04670B5830734
:100C50003FD0541E002A3BD0CEB20300032503E050
:100C6000621E002C34D0140001335A1E16702B4221
:100C7000F6D1032C24D9FF250D402A0215432A045E
:100C800015430F2C11D92600103E360901363601C6
:100C90001A009B19156055609560D560103293421B
:100CA000F8D10F221440032C0AD9261FB6080136AA
:100CB000B6001A009B1920C29342FCD103221440B3
:100CC000002C05D0C9B21C19197001339C42FBD10C
:080CD00070BD14000300CCE725
:040CD80000127A008C
:0400000508000000EF
:00000001FF
